{
  "contractName": "TimeCapsule",
  "abi": [
    {
      "inputs": [],
      "stateMutability": "nonpayable",
      "type": "constructor"
    },
    {
      "anonymous": false,
      "inputs": [
        {
          "indexed": true,
          "internalType": "address",
          "name": "owner",
          "type": "address"
        },
        {
          "indexed": true,
          "internalType": "address",
          "name": "approved",
          "type": "address"
        },
        {
          "indexed": true,
          "internalType": "uint256",
          "name": "tokenId",
          "type": "uint256"
        }
      ],
      "name": "Approval",
      "type": "event"
    },
    {
      "anonymous": false,
      "inputs": [
        {
          "indexed": true,
          "internalType": "address",
          "name": "owner",
          "type": "address"
        },
        {
          "indexed": true,
          "internalType": "address",
          "name": "operator",
          "type": "address"
        },
        {
          "indexed": false,
          "internalType": "bool",
          "name": "approved",
          "type": "bool"
        }
      ],
      "name": "ApprovalForAll",
      "type": "event"
    },
    {
      "anonymous": false,
      "inputs": [
        {
          "indexed": true,
          "internalType": "address",
          "name": "from",
          "type": "address"
        },
        {
          "indexed": true,
          "internalType": "address",
          "name": "to",
          "type": "address"
        },
        {
          "indexed": true,
          "internalType": "uint256",
          "name": "tokenId",
          "type": "uint256"
        }
      ],
      "name": "Transfer",
      "type": "event"
    },
    {
      "inputs": [
        {
          "internalType": "address",
          "name": "to",
          "type": "address"
        },
        {
          "internalType": "uint256",
          "name": "tokenId",
          "type": "uint256"
        }
      ],
      "name": "approve",
      "outputs": [],
      "stateMutability": "nonpayable",
      "type": "function"
    },
    {
      "inputs": [
        {
          "internalType": "address",
          "name": "owner",
          "type": "address"
        }
      ],
      "name": "balanceOf",
      "outputs": [
        {
          "internalType": "uint256",
          "name": "",
          "type": "uint256"
        }
      ],
      "stateMutability": "view",
      "type": "function",
      "constant": true
    },
    {
      "inputs": [
        {
          "internalType": "uint256",
          "name": "tokenId",
          "type": "uint256"
        }
      ],
      "name": "getApproved",
      "outputs": [
        {
          "internalType": "address",
          "name": "",
          "type": "address"
        }
      ],
      "stateMutability": "view",
      "type": "function",
      "constant": true
    },
    {
      "inputs": [
        {
          "internalType": "address",
          "name": "owner",
          "type": "address"
        },
        {
          "internalType": "address",
          "name": "operator",
          "type": "address"
        }
      ],
      "name": "isApprovedForAll",
      "outputs": [
        {
          "internalType": "bool",
          "name": "",
          "type": "bool"
        }
      ],
      "stateMutability": "view",
      "type": "function",
      "constant": true
    },
    {
      "inputs": [],
      "name": "name",
      "outputs": [
        {
          "internalType": "string",
          "name": "",
          "type": "string"
        }
      ],
      "stateMutability": "view",
      "type": "function",
      "constant": true
    },
    {
      "inputs": [
        {
          "internalType": "uint256",
          "name": "tokenId",
          "type": "uint256"
        }
      ],
      "name": "ownerOf",
      "outputs": [
        {
          "internalType": "address",
          "name": "",
          "type": "address"
        }
      ],
      "stateMutability": "view",
      "type": "function",
      "constant": true
    },
    {
      "inputs": [
        {
          "internalType": "address",
          "name": "from",
          "type": "address"
        },
        {
          "internalType": "address",
          "name": "to",
          "type": "address"
        },
        {
          "internalType": "uint256",
          "name": "tokenId",
          "type": "uint256"
        }
      ],
      "name": "safeTransferFrom",
      "outputs": [],
      "stateMutability": "nonpayable",
      "type": "function"
    },
    {
      "inputs": [
        {
          "internalType": "address",
          "name": "from",
          "type": "address"
        },
        {
          "internalType": "address",
          "name": "to",
          "type": "address"
        },
        {
          "internalType": "uint256",
          "name": "tokenId",
          "type": "uint256"
        },
        {
          "internalType": "bytes",
          "name": "_data",
          "type": "bytes"
        }
      ],
      "name": "safeTransferFrom",
      "outputs": [],
      "stateMutability": "nonpayable",
      "type": "function"
    },
    {
      "inputs": [
        {
          "internalType": "address",
          "name": "operator",
          "type": "address"
        },
        {
          "internalType": "bool",
          "name": "approved",
          "type": "bool"
        }
      ],
      "name": "setApprovalForAll",
      "outputs": [],
      "stateMutability": "nonpayable",
      "type": "function"
    },
    {
      "inputs": [
        {
          "internalType": "bytes4",
          "name": "interfaceId",
          "type": "bytes4"
        }
      ],
      "name": "supportsInterface",
      "outputs": [
        {
          "internalType": "bool",
          "name": "",
          "type": "bool"
        }
      ],
      "stateMutability": "view",
      "type": "function",
      "constant": true
    },
    {
      "inputs": [],
      "name": "symbol",
      "outputs": [
        {
          "internalType": "string",
          "name": "",
          "type": "string"
        }
      ],
      "stateMutability": "view",
      "type": "function",
      "constant": true
    },
    {
      "inputs": [
        {
          "internalType": "uint256",
          "name": "tokenId",
          "type": "uint256"
        }
      ],
      "name": "tokenURI",
      "outputs": [
        {
          "internalType": "string",
          "name": "",
          "type": "string"
        }
      ],
      "stateMutability": "view",
      "type": "function",
      "constant": true
    },
    {
      "inputs": [
        {
          "internalType": "address",
          "name": "from",
          "type": "address"
        },
        {
          "internalType": "address",
          "name": "to",
          "type": "address"
        },
        {
          "internalType": "uint256",
          "name": "tokenId",
          "type": "uint256"
        }
      ],
      "name": "transferFrom",
      "outputs": [],
      "stateMutability": "nonpayable",
      "type": "function"
    },
    {
      "inputs": [
        {
          "internalType": "uint256",
          "name": "tokenid",
          "type": "uint256"
        },
        {
          "internalType": "string",
          "name": "tokenURI",
          "type": "string"
        }
      ],
      "name": "writeTo",
      "outputs": [
        {
          "internalType": "uint256",
          "name": "",
          "type": "uint256"
        }
      ],
      "stateMutability": "nonpayable",
      "type": "function"
    },
    {
      "inputs": [
        {
          "internalType": "uint256",
          "name": "tokenid",
          "type": "uint256"
        },
        {
          "internalType": "string",
          "name": "tokenURI",
          "type": "string"
        }
      ],
      "name": "updateMetadata",
      "outputs": [
        {
          "internalType": "uint256",
          "name": "",
          "type": "uint256"
        }
      ],
      "stateMutability": "nonpayable",
      "type": "function"
    },
    {
      "inputs": [
        {
          "internalType": "uint256",
          "name": "tokenid",
          "type": "uint256"
        },
        {
          "internalType": "address",
          "name": "recipient",
          "type": "address"
        }
      ],
      "name": "transfer",
      "outputs": [],
      "stateMutability": "nonpayable",
      "type": "function"
    }
  ],
  "bytecode": "0x60806040523480156200001157600080fd5b506040518060400160405280600b81526020017f54696d6543617073756c650000000000000000000000000000000000000000008152506040518060400160405280600281526020017f5443000000000000000000000000000000000000000000000000000000000000815250816000908051906020019062000096929190620000b8565b508060019080519060200190620000af929190620000b8565b505050620001cc565b828054620000c69062000197565b90600052602060002090601f016020900481019282620000ea576000855562000136565b82601f106200010557805160ff191683800117855562000136565b8280016001018555821562000136579182015b828111156200013557825182559160200191906001019062000118565b5b50905062000145919062000149565b5090565b5b80821115620001645760008160009055506001016200014a565b5090565b7f4e487b7100000000000000000000000000000000000000000000000000000000600052602260045260246000fd5b60006002820490506001821680620001b057607f821691505b602082108103620001c657620001c562000168565b5b50919050565b612c4080620001dc6000396000f3fe608060405234801561001057600080fd5b50600436106101005760003560e01c806370a0823111610097578063b7760c8f11610066578063b7760c8f146102d1578063b88d4fde146102ed578063c87b56dd14610309578063e985e9c51461033957610100565b806370a08231146102375780637f0592e41461026757806395d89b4114610297578063a22cb465146102b557610100565b806323b872dd116100d357806323b872dd1461019f57806342842e0e146101bb57806353c8388e146101d75780636352211e1461020757610100565b806301ffc9a71461010557806306fdde0314610135578063081812fc14610153578063095ea7b314610183575b600080fd5b61011f600480360381019061011a9190611964565b610369565b60405161012c91906119ac565b60405180910390f35b61013d61044b565b60405161014a9190611a60565b60405180910390f35b61016d60048036038101906101689190611ab8565b6104dd565b60405161017a9190611b26565b60405180910390f35b61019d60048036038101906101989190611b6d565b610562565b005b6101b960048036038101906101b49190611bad565b610679565b005b6101d560048036038101906101d09190611bad565b6106d9565b005b6101f160048036038101906101ec9190611d35565b6106f9565b6040516101fe9190611da0565b60405180910390f35b610221600480360381019061021c9190611ab8565b61070e565b60405161022e9190611b26565b60405180910390f35b610251600480360381019061024c9190611dbb565b6107bf565b60405161025e9190611da0565b60405180910390f35b610281600480360381019061027c9190611d35565b610876565b60405161028e9190611da0565b60405180910390f35b61029f610895565b6040516102ac9190611a60565b60405180910390f35b6102cf60048036038101906102ca9190611e14565b610927565b005b6102eb60048036038101906102e69190611e54565b61093d565b005b61030760048036038101906103029190611f35565b61094c565b005b610323600480360381019061031e9190611ab8565b6109ae565b6040516103309190611a60565b60405180910390f35b610353600480360381019061034e9190611fb8565b610aff565b60405161036091906119ac565b60405180910390f35b60007f80ac58cd000000000000000000000000000000000000000000000000000000007bffffffffffffffffffffffffffffffffffffffffffffffffffffffff1916827bffffffffffffffffffffffffffffffffffffffffffffffffffffffff1916148061043457507f5b5e139f000000000000000000000000000000000000000000000000000000007bffffffffffffffffffffffffffffffffffffffffffffffffffffffff1916827bffffffffffffffffffffffffffffffffffffffffffffffffffffffff1916145b80610444575061044382610b93565b5b9050919050565b60606000805461045a90612027565b80601f016020809104026020016040519081016040528092919081815260200182805461048690612027565b80156104d35780601f106104a8576101008083540402835291602001916104d3565b820191906000526020600020905b8154815290600101906020018083116104b657829003601f168201915b5050505050905090565b60006104e882610bfd565b610527576040517f08c379a000000000000000000000000000000000000000000000000000000000815260040161051e906120ca565b60405180910390fd5b6004600083815260200190815260200160002060009054906101000a900473ffffffffffffffffffffffffffffffffffffffff169050919050565b600061056d8261070e565b90508073ffffffffffffffffffffffffffffffffffffffff168373ffffffffffffffffffffffffffffffffffffffff16036105dd576040517f08c379a00000000000000000000000000000000000000000000000000000000081526004016105d49061215c565b60405180910390fd5b8073ffffffffffffffffffffffffffffffffffffffff166105fc610c69565b73ffffffffffffffffffffffffffffffffffffffff16148061062b575061062a81610625610c69565b610aff565b5b61066a576040517f08c379a0000000000000000000000000000000000000000000000000000000008152600401610661906121ee565b60405180910390fd5b6106748383610c71565b505050565b61068a610684610c69565b82610d2a565b6106c9576040517f08c379a00000000000000000000000000000000000000000000000000000000081526004016106c090612280565b60405180910390fd5b6106d4838383610e08565b505050565b6106f48383836040518060200160405280600081525061094c565b505050565b6000610705838361106e565b82905092915050565b6000806002600084815260200190815260200160002060009054906101000a900473ffffffffffffffffffffffffffffffffffffffff169050600073ffffffffffffffffffffffffffffffffffffffff168173ffffffffffffffffffffffffffffffffffffffff16036107b6576040517f08c379a00000000000000000000000000000000000000000000000000000000081526004016107ad90612312565b60405180910390fd5b80915050919050565b60008073ffffffffffffffffffffffffffffffffffffffff168273ffffffffffffffffffffffffffffffffffffffff160361082f576040517f08c379a0000000000000000000000000000000000000000000000000000000008152600401610826906123a4565b60405180910390fd5b600360008373ffffffffffffffffffffffffffffffffffffffff1673ffffffffffffffffffffffffffffffffffffffff168152602001908152602001600020549050919050565b600061088233846110e2565b61088c838361106e565b82905092915050565b6060600180546108a490612027565b80601f01602080910402602001604051908101604052809291908181526020018280546108d090612027565b801561091d5780601f106108f25761010080835404028352916020019161091d565b820191906000526020600020905b81548152906001019060200180831161090057829003601f168201915b5050505050905090565b610939610932610c69565b83836112bb565b5050565b610948338284610679565b5050565b61095d610957610c69565b83610d2a565b61099c576040517f08c379a000000000000000000000000000000000000000000000000000000000815260040161099390612280565b60405180910390fd5b6109a884848484611427565b50505050565b60606109b982610bfd565b6109f8576040517f08c379a00000000000000000000000000000000000000000000000000000000081526004016109ef90612436565b60405180910390fd5b6000600660008481526020019081526020016000208054610a1890612027565b80601f0160208091040260200160405190810160405280929190818152602001828054610a4490612027565b8015610a915780601f10610a6657610100808354040283529160200191610a91565b820191906000526020600020905b815481529060010190602001808311610a7457829003601f168201915b505050505090506000610aa2611483565b90506000815103610ab7578192505050610afa565b600082511115610aec578082604051602001610ad4929190612492565b60405160208183030381529060405292505050610afa565b610af58461149a565b925050505b919050565b6000600560008473ffffffffffffffffffffffffffffffffffffffff1673ffffffffffffffffffffffffffffffffffffffff16815260200190815260200160002060008373ffffffffffffffffffffffffffffffffffffffff1673ffffffffffffffffffffffffffffffffffffffff16815260200190815260200160002060009054906101000a900460ff16905092915050565b60007f01ffc9a7000000000000000000000000000000000000000000000000000000007bffffffffffffffffffffffffffffffffffffffffffffffffffffffff1916827bffffffffffffffffffffffffffffffffffffffffffffffffffffffff1916149050919050565b60008073ffffffffffffffffffffffffffffffffffffffff166002600084815260200190815260200160002060009054906101000a900473ffffffffffffffffffffffffffffffffffffffff1673ffffffffffffffffffffffffffffffffffffffff1614159050919050565b600033905090565b816004600083815260200190815260200160002060006101000a81548173ffffffffffffffffffffffffffffffffffffffff021916908373ffffffffffffffffffffffffffffffffffffffff160217905550808273ffffffffffffffffffffffffffffffffffffffff16610ce48361070e565b73ffffffffffffffffffffffffffffffffffffffff167f8c5be1e5ebec7d5bd14f71427d1e84f3dd0314c0f7b2291e5b200ac8c7c3b92560405160405180910390a45050565b6000610d3582610bfd565b610d74576040517f08c379a0000000000000000000000000000000000000000000000000000000008152600401610d6b90612528565b60405180910390fd5b6000610d7f8361070e565b90508073ffffffffffffffffffffffffffffffffffffffff168473ffffffffffffffffffffffffffffffffffffffff161480610dc15750610dc08185610aff565b5b80610dff57508373ffffffffffffffffffffffffffffffffffffffff16610de7846104dd565b73ffffffffffffffffffffffffffffffffffffffff16145b91505092915050565b8273ffffffffffffffffffffffffffffffffffffffff16610e288261070e565b73ffffffffffffffffffffffffffffffffffffffff1614610e7e576040517f08c379a0000000000000000000000000000000000000000000000000000000008152600401610e75906125ba565b60405180910390fd5b600073ffffffffffffffffffffffffffffffffffffffff168273ffffffffffffffffffffffffffffffffffffffff1603610eed576040517f08c379a0000000000000000000000000000000000000000000000000000000008152600401610ee49061264c565b60405180910390fd5b610ef8838383611541565b610f03600082610c71565b6001600360008573ffffffffffffffffffffffffffffffffffffffff1673ffffffffffffffffffffffffffffffffffffffff1681526020019081526020016000206000828254610f53919061269b565b925050819055506001600360008473ffffffffffffffffffffffffffffffffffffffff1673ffffffffffffffffffffffffffffffffffffffff1681526020019081526020016000206000828254610faa91906126cf565b92505081905550816002600083815260200190815260200160002060006101000a81548173ffffffffffffffffffffffffffffffffffffffff021916908373ffffffffffffffffffffffffffffffffffffffff160217905550808273ffffffffffffffffffffffffffffffffffffffff168473ffffffffffffffffffffffffffffffffffffffff167fddf252ad1be2c89b69c2b068fc378daa952ba7f163c4a11628f55a4df523b3ef60405160405180910390a4611069838383611546565b505050565b61107782610bfd565b6110b6576040517f08c379a00000000000000000000000000000000000000000000000000000000081526004016110ad90612797565b60405180910390fd5b806006600084815260200190815260200160002090805190602001906110dd929190611855565b505050565b600073ffffffffffffffffffffffffffffffffffffffff168273ffffffffffffffffffffffffffffffffffffffff1603611151576040517f08c379a000000000000000000000000000000000000000000000000000000000815260040161114890612803565b60405180910390fd5b61115a81610bfd565b1561119a576040517f08c379a00000000000000000000000000000000000000000000000000000000081526004016111919061286f565b60405180910390fd5b6111a660008383611541565b6001600360008473ffffffffffffffffffffffffffffffffffffffff1673ffffffffffffffffffffffffffffffffffffffff16815260200190815260200160002060008282546111f691906126cf565b92505081905550816002600083815260200190815260200160002060006101000a81548173ffffffffffffffffffffffffffffffffffffffff021916908373ffffffffffffffffffffffffffffffffffffffff160217905550808273ffffffffffffffffffffffffffffffffffffffff16600073ffffffffffffffffffffffffffffffffffffffff167fddf252ad1be2c89b69c2b068fc378daa952ba7f163c4a11628f55a4df523b3ef60405160405180910390a46112b760008383611546565b5050565b8173ffffffffffffffffffffffffffffffffffffffff168373ffffffffffffffffffffffffffffffffffffffff1603611329576040517f08c379a0000000000000000000000000000000000000000000000000000000008152600401611320906128db565b60405180910390fd5b80600560008573ffffffffffffffffffffffffffffffffffffffff1673ffffffffffffffffffffffffffffffffffffffff16815260200190815260200160002060008473ffffffffffffffffffffffffffffffffffffffff1673ffffffffffffffffffffffffffffffffffffffff16815260200190815260200160002060006101000a81548160ff0219169083151502179055508173ffffffffffffffffffffffffffffffffffffffff168373ffffffffffffffffffffffffffffffffffffffff167f17307eab39ab6107e8899845ad3d59bd9653f200f220920489ca2b5937696c318360405161141a91906119ac565b60405180910390a3505050565b611432848484610e08565b61143e8484848461154b565b61147d576040517f08c379a00000000000000000000000000000000000000000000000000000000081526004016114749061296d565b60405180910390fd5b50505050565b606060405180602001604052806000815250905090565b60606114a582610bfd565b6114e4576040517f08c379a00000000000000000000000000000000000000000000000000000000081526004016114db906129ff565b60405180910390fd5b60006114ee611483565b9050600081511161150e5760405180602001604052806000815250611539565b80611518846116d2565b604051602001611529929190612492565b6040516020818303038152906040525b915050919050565b505050565b505050565b600061156c8473ffffffffffffffffffffffffffffffffffffffff16611832565b156116c5578373ffffffffffffffffffffffffffffffffffffffff1663150b7a02611595610c69565b8786866040518563ffffffff1660e01b81526004016115b79493929190612a74565b6020604051808303816000875af19250505080156115f357506040513d601f19601f820116820180604052508101906115f09190612ad5565b60015b611675573d8060008114611623576040519150601f19603f3d011682016040523d82523d6000602084013e611628565b606091505b50600081510361166d576040517f08c379a00000000000000000000000000000000000000000000000000000000081526004016116649061296d565b60405180910390fd5b805181602001fd5b63150b7a0260e01b7bffffffffffffffffffffffffffffffffffffffffffffffffffffffff1916817bffffffffffffffffffffffffffffffffffffffffffffffffffffffff1916149150506116ca565b600190505b949350505050565b606060008203611719576040518060400160405280600181526020017f3000000000000000000000000000000000000000000000000000000000000000815250905061182d565b600082905060005b6000821461174b57808061173490612b02565b915050600a826117449190612b79565b9150611721565b60008167ffffffffffffffff81111561176757611766611c0a565b5b6040519080825280601f01601f1916602001820160405280156117995781602001600182028036833780820191505090505b5090505b60008514611826576001826117b2919061269b565b9150600a856117c19190612baa565b60306117cd91906126cf565b60f81b8183815181106117e3576117e2612bdb565b5b60200101907effffffffffffffffffffffffffffffffffffffffffffffffffffffffffffff1916908160001a905350600a8561181f9190612b79565b945061179d565b8093505050505b919050565b6000808273ffffffffffffffffffffffffffffffffffffffff163b119050919050565b82805461186190612027565b90600052602060002090601f01602090048101928261188357600085556118ca565b82601f1061189c57805160ff19168380011785556118ca565b828001600101855582156118ca579182015b828111156118c95782518255916020019190600101906118ae565b5b5090506118d791906118db565b5090565b5b808211156118f45760008160009055506001016118dc565b5090565b6000604051905090565b600080fd5b600080fd5b60007fffffffff0000000000000000000000000000000000000000000000000000000082169050919050565b6119418161190c565b811461194c57600080fd5b50565b60008135905061195e81611938565b92915050565b60006020828403121561197a57611979611902565b5b60006119888482850161194f565b91505092915050565b60008115159050919050565b6119a681611991565b82525050565b60006020820190506119c1600083018461199d565b92915050565b600081519050919050565b600082825260208201905092915050565b60005b83811015611a015780820151818401526020810190506119e6565b83811115611a10576000848401525b50505050565b6000601f19601f8301169050919050565b6000611a32826119c7565b611a3c81856119d2565b9350611a4c8185602086016119e3565b611a5581611a16565b840191505092915050565b60006020820190508181036000830152611a7a8184611a27565b905092915050565b6000819050919050565b611a9581611a82565b8114611aa057600080fd5b50565b600081359050611ab281611a8c565b92915050565b600060208284031215611ace57611acd611902565b5b6000611adc84828501611aa3565b91505092915050565b600073ffffffffffffffffffffffffffffffffffffffff82169050919050565b6000611b1082611ae5565b9050919050565b611b2081611b05565b82525050565b6000602082019050611b3b6000830184611b17565b92915050565b611b4a81611b05565b8114611b5557600080fd5b50565b600081359050611b6781611b41565b92915050565b60008060408385031215611b8457611b83611902565b5b6000611b9285828601611b58565b9250506020611ba385828601611aa3565b9150509250929050565b600080600060608486031215611bc657611bc5611902565b5b6000611bd486828701611b58565b9350506020611be586828701611b58565b9250506040611bf686828701611aa3565b9150509250925092565b600080fd5b600080fd5b7f4e487b7100000000000000000000000000000000000000000000000000000000600052604160045260246000fd5b611c4282611a16565b810181811067ffffffffffffffff82111715611c6157611c60611c0a565b5b80604052505050565b6000611c746118f8565b9050611c808282611c39565b919050565b600067ffffffffffffffff821115611ca057611c9f611c0a565b5b611ca982611a16565b9050602081019050919050565b82818337600083830152505050565b6000611cd8611cd384611c85565b611c6a565b905082815260208101848484011115611cf457611cf3611c05565b5b611cff848285611cb6565b509392505050565b600082601f830112611d1c57611d1b611c00565b5b8135611d2c848260208601611cc5565b91505092915050565b60008060408385031215611d4c57611d4b611902565b5b6000611d5a85828601611aa3565b925050602083013567ffffffffffffffff811115611d7b57611d7a611907565b5b611d8785828601611d07565b9150509250929050565b611d9a81611a82565b82525050565b6000602082019050611db56000830184611d91565b92915050565b600060208284031215611dd157611dd0611902565b5b6000611ddf84828501611b58565b91505092915050565b611df181611991565b8114611dfc57600080fd5b50565b600081359050611e0e81611de8565b92915050565b60008060408385031215611e2b57611e2a611902565b5b6000611e3985828601611b58565b9250506020611e4a85828601611dff565b9150509250929050565b60008060408385031215611e6b57611e6a611902565b5b6000611e7985828601611aa3565b9250506020611e8a85828601611b58565b9150509250929050565b600067ffffffffffffffff821115611eaf57611eae611c0a565b5b611eb882611a16565b9050602081019050919050565b6000611ed8611ed384611e94565b611c6a565b905082815260208101848484011115611ef457611ef3611c05565b5b611eff848285611cb6565b509392505050565b600082601f830112611f1c57611f1b611c00565b5b8135611f2c848260208601611ec5565b91505092915050565b60008060008060808587031215611f4f57611f4e611902565b5b6000611f5d87828801611b58565b9450506020611f6e87828801611b58565b9350506040611f7f87828801611aa3565b925050606085013567ffffffffffffffff811115611fa057611f9f611907565b5b611fac87828801611f07565b91505092959194509250565b60008060408385031215611fcf57611fce611902565b5b6000611fdd85828601611b58565b9250506020611fee85828601611b58565b9150509250929050565b7f4e487b7100000000000000000000000000000000000000000000000000000000600052602260045260246000fd5b6000600282049050600182168061203f57607f821691505b60208210810361205257612051611ff8565b5b50919050565b7f4552433732313a20617070726f76656420717565727920666f72206e6f6e657860008201527f697374656e7420746f6b656e0000000000000000000000000000000000000000602082015250565b60006120b4602c836119d2565b91506120bf82612058565b604082019050919050565b600060208201905081810360008301526120e3816120a7565b9050919050565b7f4552433732313a20617070726f76616c20746f2063757272656e74206f776e6560008201527f7200000000000000000000000000000000000000000000000000000000000000602082015250565b60006121466021836119d2565b9150612151826120ea565b604082019050919050565b6000602082019050818103600083015261217581612139565b9050919050565b7f4552433732313a20617070726f76652063616c6c6572206973206e6f74206f7760008201527f6e6572206e6f7220617070726f76656420666f7220616c6c0000000000000000602082015250565b60006121d86038836119d2565b91506121e38261217c565b604082019050919050565b60006020820190508181036000830152612207816121cb565b9050919050565b7f4552433732313a207472616e736665722063616c6c6572206973206e6f74206f60008201527f776e6572206e6f7220617070726f766564000000000000000000000000000000602082015250565b600061226a6031836119d2565b91506122758261220e565b604082019050919050565b600060208201905081810360008301526122998161225d565b9050919050565b7f4552433732313a206f776e657220717565727920666f72206e6f6e657869737460008201527f656e7420746f6b656e0000000000000000000000000000000000000000000000602082015250565b60006122fc6029836119d2565b9150612307826122a0565b604082019050919050565b6000602082019050818103600083015261232b816122ef565b9050919050565b7f4552433732313a2062616c616e636520717565727920666f7220746865207a6560008201527f726f206164647265737300000000000000000000000000000000000000000000602082015250565b600061238e602a836119d2565b915061239982612332565b604082019050919050565b600060208201905081810360008301526123bd81612381565b9050919050565b7f45524337323155524953746f726167653a2055524920717565727920666f722060008201527f6e6f6e6578697374656e7420746f6b656e000000000000000000000000000000602082015250565b60006124206031836119d2565b915061242b826123c4565b604082019050919050565b6000602082019050818103600083015261244f81612413565b9050919050565b600081905092915050565b600061246c826119c7565b6124768185612456565b93506124868185602086016119e3565b80840191505092915050565b600061249e8285612461565b91506124aa8284612461565b91508190509392505050565b7f4552433732313a206f70657261746f7220717565727920666f72206e6f6e657860008201527f697374656e7420746f6b656e0000000000000000000000000000000000000000602082015250565b6000612512602c836119d2565b915061251d826124b6565b604082019050919050565b6000602082019050818103600083015261254181612505565b9050919050565b7f4552433732313a207472616e736665722066726f6d20696e636f72726563742060008201527f6f776e6572000000000000000000000000000000000000000000000000000000602082015250565b60006125a46025836119d2565b91506125af82612548565b604082019050919050565b600060208201905081810360008301526125d381612597565b9050919050565b7f4552433732313a207472616e7366657220746f20746865207a65726f2061646460008201527f7265737300000000000000000000000000000000000000000000000000000000602082015250565b60006126366024836119d2565b9150612641826125da565b604082019050919050565b6000602082019050818103600083015261266581612629565b9050919050565b7f4e487b7100000000000000000000000000000000000000000000000000000000600052601160045260246000fd5b60006126a682611a82565b91506126b183611a82565b9250828210156126c4576126c361266c565b5b828203905092915050565b60006126da82611a82565b91506126e583611a82565b9250827fffffffffffffffffffffffffffffffffffffffffffffffffffffffffffffffff0382111561271a5761271961266c565b5b828201905092915050565b7f45524337323155524953746f726167653a2055524920736574206f66206e6f6e60008201527f6578697374656e7420746f6b656e000000000000000000000000000000000000602082015250565b6000612781602e836119d2565b915061278c82612725565b604082019050919050565b600060208201905081810360008301526127b081612774565b9050919050565b7f4552433732313a206d696e7420746f20746865207a65726f2061646472657373600082015250565b60006127ed6020836119d2565b91506127f8826127b7565b602082019050919050565b6000602082019050818103600083015261281c816127e0565b9050919050565b7f4552433732313a20746f6b656e20616c7265616479206d696e74656400000000600082015250565b6000612859601c836119d2565b915061286482612823565b602082019050919050565b600060208201905081810360008301526128888161284c565b9050919050565b7f4552433732313a20617070726f766520746f2063616c6c657200000000000000600082015250565b60006128c56019836119d2565b91506128d08261288f565b602082019050919050565b600060208201905081810360008301526128f4816128b8565b9050919050565b7f4552433732313a207472616e7366657220746f206e6f6e20455243373231526560008201527f63656976657220696d706c656d656e7465720000000000000000000000000000602082015250565b60006129576032836119d2565b9150612962826128fb565b604082019050919050565b600060208201905081810360008301526129868161294a565b9050919050565b7f4552433732314d657461646174613a2055524920717565727920666f72206e6f60008201527f6e6578697374656e7420746f6b656e0000000000000000000000000000000000602082015250565b60006129e9602f836119d2565b91506129f48261298d565b604082019050919050565b60006020820190508181036000830152612a18816129dc565b9050919050565b600081519050919050565b600082825260208201905092915050565b6000612a4682612a1f565b612a508185612a2a565b9350612a608185602086016119e3565b612a6981611a16565b840191505092915050565b6000608082019050612a896000830187611b17565b612a966020830186611b17565b612aa36040830185611d91565b8181036060830152612ab58184612a3b565b905095945050505050565b600081519050612acf81611938565b92915050565b600060208284031215612aeb57612aea611902565b5b6000612af984828501612ac0565b91505092915050565b6000612b0d82611a82565b91507fffffffffffffffffffffffffffffffffffffffffffffffffffffffffffffffff8203612b3f57612b3e61266c565b5b600182019050919050565b7f4e487b7100000000000000000000000000000000000000000000000000000000600052601260045260246000fd5b6000612b8482611a82565b9150612b8f83611a82565b925082612b9f57612b9e612b4a565b5b828204905092915050565b6000612bb582611a82565b9150612bc083611a82565b925082612bd057612bcf612b4a565b5b828206905092915050565b7f4e487b7100000000000000000000000000000000000000000000000000000000600052603260045260246000fdfea26469706673582212203cf91116e4345090c70c6d8d54d0ce906b1015a9dcd02a1ddf49717871dbff2b64736f6c634300080d0033",
  "immutableReferences": {},
  "source": "// SPDX-License-Identifier: MIT\npragma solidity >=0.4.20;\n\nimport \"@openzeppelin/contracts/token/ERC721/extensions/ERC721URIStorage.sol\";\nimport \"@openzeppelin/contracts/utils/Counters.sol\";\n\ncontract TimeCapsule is ERC721URIStorage{\n\n    constructor() ERC721(\"TimeCapsule\", \"TC\") {}\n\n\tfunction writeTo(uint256 tokenid, string memory tokenURI) public returns (uint256) {\n        _mint(msg.sender, tokenid);\n\t\t_setTokenURI(tokenid, tokenURI);\n        return tokenid;\n\t}\n\n\tfunction updateMetadata(uint256 tokenid, string memory tokenURI) public returns (uint256) {\n\t\t_setTokenURI(tokenid, tokenURI);\n        return tokenid;\n\t}\n\n\tfunction transfer(uint256 tokenid, address recipient) public {\n\t\t\ttransferFrom(msg.sender, recipient, tokenid);\n\t}\n}\n\n\n\n\n",
  "sourcePath": "/Users/carriekellar/TimeCapsule/contracts/TimeCapsule.sol",
  "compiler": {
    "name": "solc",
    "version": "0.8.13+commit.abaa5c0e.Emscripten.clang"
  },
  "schemaVersion": "3.4.7",
  "updatedAt": "2022-05-13T20:20:07.403Z",
  "networkType": "ethereum",
  "devdoc": {
    "kind": "dev",
    "methods": {
      "approve(address,uint256)": {
        "details": "See {IERC721-approve}."
      },
      "balanceOf(address)": {
        "details": "See {IERC721-balanceOf}."
      },
      "getApproved(uint256)": {
        "details": "See {IERC721-getApproved}."
      },
      "isApprovedForAll(address,address)": {
        "details": "See {IERC721-isApprovedForAll}."
      },
      "name()": {
        "details": "See {IERC721Metadata-name}."
      },
      "ownerOf(uint256)": {
        "details": "See {IERC721-ownerOf}."
      },
      "safeTransferFrom(address,address,uint256)": {
        "details": "See {IERC721-safeTransferFrom}."
      },
      "safeTransferFrom(address,address,uint256,bytes)": {
        "details": "See {IERC721-safeTransferFrom}."
      },
      "setApprovalForAll(address,bool)": {
        "details": "See {IERC721-setApprovalForAll}."
      },
      "supportsInterface(bytes4)": {
        "details": "See {IERC165-supportsInterface}."
      },
      "symbol()": {
        "details": "See {IERC721Metadata-symbol}."
      },
      "tokenURI(uint256)": {
        "details": "See {IERC721Metadata-tokenURI}."
      },
      "transferFrom(address,address,uint256)": {
        "details": "See {IERC721-transferFrom}."
      }
    },
    "version": 1
  },
  "userdoc": {
    "kind": "user",
    "methods": {},
    "version": 1
  }
}